{
  "_format": "hh-sol-artifact-1",
  "contractName": "PanicVault",
  "sourceName": "contracts/PanicVault.sol",
  "abi": [
    {
      "inputs": [
        {
          "internalType": "address",
          "name": "_coldVault",
          "type": "address"
        }
      ],
      "stateMutability": "nonpayable",
      "type": "constructor"
    },
    {
      "inputs": [
        {
          "internalType": "address",
          "name": "owner",
          "type": "address"
        }
      ],
      "name": "OwnableInvalidOwner",
      "type": "error"
    },
    {
      "inputs": [
        {
          "internalType": "address",
          "name": "account",
          "type": "address"
        }
      ],
      "name": "OwnableUnauthorizedAccount",
      "type": "error"
    },
    {
      "anonymous": false,
      "inputs": [
        {
          "indexed": true,
          "internalType": "address",
          "name": "token",
          "type": "address"
        },
        {
          "indexed": false,
          "internalType": "uint256",
          "name": "amount",
          "type": "uint256"
        }
      ],
      "name": "AssetsRescued",
      "type": "event"
    },
    {
      "anonymous": false,
      "inputs": [
        {
          "indexed": true,
          "internalType": "address",
          "name": "previousOwner",
          "type": "address"
        },
        {
          "indexed": true,
          "internalType": "address",
          "name": "newOwner",
          "type": "address"
        }
      ],
      "name": "OwnershipTransferred",
      "type": "event"
    },
    {
      "anonymous": false,
      "inputs": [
        {
          "indexed": true,
          "internalType": "address",
          "name": "user",
          "type": "address"
        },
        {
          "indexed": false,
          "internalType": "uint256",
          "name": "timestamp",
          "type": "uint256"
        }
      ],
      "name": "PanicTriggered",
      "type": "event"
    },
    {
      "inputs": [],
      "name": "coldVault",
      "outputs": [
        {
          "internalType": "address",
          "name": "",
          "type": "address"
        }
      ],
      "stateMutability": "view",
      "type": "function"
    },
    {
      "inputs": [],
      "name": "owner",
      "outputs": [
        {
          "internalType": "address",
          "name": "",
          "type": "address"
        }
      ],
      "stateMutability": "view",
      "type": "function"
    },
    {
      "inputs": [],
      "name": "renounceOwnership",
      "outputs": [],
      "stateMutability": "nonpayable",
      "type": "function"
    },
    {
      "inputs": [],
      "name": "rescueNative",
      "outputs": [],
      "stateMutability": "nonpayable",
      "type": "function"
    },
    {
      "inputs": [
        {
          "internalType": "address",
          "name": "newOwner",
          "type": "address"
        }
      ],
      "name": "transferOwnership",
      "outputs": [],
      "stateMutability": "nonpayable",
      "type": "function"
    },
    {
      "inputs": [
        {
          "internalType": "address[]",
          "name": "tokens",
          "type": "address[]"
        }
      ],
      "name": "triggerLockdown",
      "outputs": [],
      "stateMutability": "nonpayable",
      "type": "function"
    },
    {
      "stateMutability": "payable",
      "type": "receive"
    }
  ],
  "bytecode": "0x60806040523480156200001157600080fd5b5060405162000e1e38038062000e1e833981810160405281019062000037919062000235565b33600073ffffffffffffffffffffffffffffffffffffffff168173ffffffffffffffffffffffffffffffffffffffff1603620000ad5760006040517f1e4fbdf7000000000000000000000000000000000000000000000000000000008152600401620000a4919062000278565b60405180910390fd5b620000be816200010760201b60201c565b5080600160006101000a81548173ffffffffffffffffffffffffffffffffffffffff021916908373ffffffffffffffffffffffffffffffffffffffff1602179055505062000295565b60008060009054906101000a900473ffffffffffffffffffffffffffffffffffffffff169050816000806101000a81548173ffffffffffffffffffffffffffffffffffffffff021916908373ffffffffffffffffffffffffffffffffffffffff1602179055508173ffffffffffffffffffffffffffffffffffffffff168173ffffffffffffffffffffffffffffffffffffffff167f8be0079c531659141344cd1fd0a4f28419497f9722a3daafe3b4186f6b6457e060405160405180910390a35050565b600080fd5b600073ffffffffffffffffffffffffffffffffffffffff82169050919050565b6000620001fd82620001d0565b9050919050565b6200020f81620001f0565b81146200021b57600080fd5b50565b6000815190506200022f8162000204565b92915050565b6000602082840312156200024e576200024d620001cb565b5b60006200025e848285016200021e565b91505092915050565b6200027281620001f0565b82525050565b60006020820190506200028f600083018462000267565b92915050565b610b7980620002a56000396000f3fe6080604052600436106100595760003560e01c8063715018a6146100655780638da5cb5b1461007c578063a8721ee6146100a7578063b85ca154146100d2578063f2fde38b146100fb578063fc82f0841461012457610060565b3661006057005b600080fd5b34801561007157600080fd5b5061007a61013b565b005b34801561008857600080fd5b5061009161014f565b60405161009e9190610723565b60405180910390f35b3480156100b357600080fd5b506100bc610178565b6040516100c99190610723565b60405180910390f35b3480156100de57600080fd5b506100f960048036038101906100f491906107ad565b61019e565b005b34801561010757600080fd5b50610122600480360381019061011d9190610826565b61042a565b005b34801561013057600080fd5b506101396104b0565b005b61014361058f565b61014d6000610616565b565b60008060009054906101000a900473ffffffffffffffffffffffffffffffffffffffff16905090565b600160009054906101000a900473ffffffffffffffffffffffffffffffffffffffff1681565b6101a661058f565b3373ffffffffffffffffffffffffffffffffffffffff167fc3f333c4401366a27a0eb1a2e1e78d21809be32f93cea0aa7022e2b4e1a5a64e426040516101ec919061086c565b60405180910390a260005b8282905081101561042557600083838381811061021757610216610887565b5b905060200201602081019061022c9190610826565b905060008173ffffffffffffffffffffffffffffffffffffffff166370a08231306040518263ffffffff1660e01b81526004016102699190610723565b602060405180830381865afa158015610286573d6000803e3d6000fd5b505050506040513d601f19601f820116820180604052508101906102aa91906108e2565b905060008111156104105760008273ffffffffffffffffffffffffffffffffffffffff1663a9059cbb600160009054906101000a900473ffffffffffffffffffffffffffffffffffffffff16846040518363ffffffff1660e01b815260040161031492919061090f565b6020604051808303816000875af1158015610333573d6000803e3d6000fd5b505050506040513d601f19601f820116820180604052508101906103579190610970565b905080610399576040517f08c379a0000000000000000000000000000000000000000000000000000000008152600401610390906109fa565b60405180910390fd5b8585858181106103ac576103ab610887565b5b90506020020160208101906103c19190610826565b73ffffffffffffffffffffffffffffffffffffffff167f5947f3dee63cb7b7bb652fef202e119c95c98327001654e59685addf542f66c183604051610406919061086c565b60405180910390a2505b5050808061041d90610a49565b9150506101f7565b505050565b61043261058f565b600073ffffffffffffffffffffffffffffffffffffffff168173ffffffffffffffffffffffffffffffffffffffff16036104a45760006040517f1e4fbdf700000000000000000000000000000000000000000000000000000000815260040161049b9190610723565b60405180910390fd5b6104ad81610616565b50565b6104b861058f565b60004790506000600160009054906101000a900473ffffffffffffffffffffffffffffffffffffffff1673ffffffffffffffffffffffffffffffffffffffff168260405161050590610ac2565b60006040518083038185875af1925050503d8060008114610542576040519150601f19603f3d011682016040523d82523d6000602084013e610547565b606091505b505090508061058b576040517f08c379a000000000000000000000000000000000000000000000000000000000815260040161058290610b23565b60405180910390fd5b5050565b6105976106da565b73ffffffffffffffffffffffffffffffffffffffff166105b561014f565b73ffffffffffffffffffffffffffffffffffffffff1614610614576105d86106da565b6040517f118cdaa700000000000000000000000000000000000000000000000000000000815260040161060b9190610723565b60405180910390fd5b565b60008060009054906101000a900473ffffffffffffffffffffffffffffffffffffffff169050816000806101000a81548173ffffffffffffffffffffffffffffffffffffffff021916908373ffffffffffffffffffffffffffffffffffffffff1602179055508173ffffffffffffffffffffffffffffffffffffffff168173ffffffffffffffffffffffffffffffffffffffff167f8be0079c531659141344cd1fd0a4f28419497f9722a3daafe3b4186f6b6457e060405160405180910390a35050565b600033905090565b600073ffffffffffffffffffffffffffffffffffffffff82169050919050565b600061070d826106e2565b9050919050565b61071d81610702565b82525050565b60006020820190506107386000830184610714565b92915050565b600080fd5b600080fd5b600080fd5b600080fd5b600080fd5b60008083601f84011261076d5761076c610748565b5b8235905067ffffffffffffffff81111561078a5761078961074d565b5b6020830191508360208202830111156107a6576107a5610752565b5b9250929050565b600080602083850312156107c4576107c361073e565b5b600083013567ffffffffffffffff8111156107e2576107e1610743565b5b6107ee85828601610757565b92509250509250929050565b61080381610702565b811461080e57600080fd5b50565b600081359050610820816107fa565b92915050565b60006020828403121561083c5761083b61073e565b5b600061084a84828501610811565b91505092915050565b6000819050919050565b61086681610853565b82525050565b6000602082019050610881600083018461085d565b92915050565b7f4e487b7100000000000000000000000000000000000000000000000000000000600052603260045260246000fd5b6108bf81610853565b81146108ca57600080fd5b50565b6000815190506108dc816108b6565b92915050565b6000602082840312156108f8576108f761073e565b5b6000610906848285016108cd565b91505092915050565b60006040820190506109246000830185610714565b610931602083018461085d565b9392505050565b60008115159050919050565b61094d81610938565b811461095857600080fd5b50565b60008151905061096a81610944565b92915050565b6000602082840312156109865761098561073e565b5b60006109948482850161095b565b91505092915050565b600082825260208201905092915050565b7f526573637565206661696c656400000000000000000000000000000000000000600082015250565b60006109e4600d8361099d565b91506109ef826109ae565b602082019050919050565b60006020820190508181036000830152610a13816109d7565b9050919050565b7f4e487b7100000000000000000000000000000000000000000000000000000000600052601160045260246000fd5b6000610a5482610853565b91507fffffffffffffffffffffffffffffffffffffffffffffffffffffffffffffffff8203610a8657610a85610a1a565b5b600182019050919050565b600081905092915050565b50565b6000610aac600083610a91565b9150610ab782610a9c565b600082019050919050565b6000610acd82610a9f565b9150819050919050565b7f4e617469766520726573637565206661696c6564000000000000000000000000600082015250565b6000610b0d60148361099d565b9150610b1882610ad7565b602082019050919050565b60006020820190508181036000830152610b3c81610b00565b905091905056fea26469706673582212201bae916447c2dc9b6d178750edd1c7b8b03d64d456cb365ca5361c47e36929af64736f6c63430008140033",
  "linkReferences": {},
  "deployedLinkReferences": {}
}