{
  "_format": "hh-sol-artifact-1",
  "contractName": "StealthVault",
  "sourceName": "contracts/StealthVault.sol",
  "abi": [
    {
      "anonymous": false,
      "inputs": [
        {
          "indexed": true,
          "internalType": "address",
          "name": "user",
          "type": "address"
        },
        {
          "indexed": false,
          "internalType": "bytes",
          "name": "encryptedData",
          "type": "bytes"
        },
        {
          "indexed": false,
          "internalType": "uint256",
          "name": "timestamp",
          "type": "uint256"
        }
      ],
      "name": "EncryptedIntentStored",
      "type": "event"
    },
    {
      "inputs": [
        {
          "internalType": "bytes",
          "name": "encryptedData",
          "type": "bytes"
        }
      ],
      "name": "storeEncryptedIntent",
      "outputs": [],
      "stateMutability": "nonpayable",
      "type": "function"
    }
  ],
  "bytecode": "0x608060405234801561001057600080fd5b5061023d806100206000396000f3fe608060405234801561001057600080fd5b506004361061002b5760003560e01c8063e0d6db2014610030575b600080fd5b61004a60048036038101906100459190610111565b61004c565b005b3373ffffffffffffffffffffffffffffffffffffffff167f809a44155e022f5f5ad0cc9c7d982fe0d87a49dbcf0bac74754ca97b5ada93dd838342604051610096939291906101d5565b60405180910390a25050565b600080fd5b600080fd5b600080fd5b600080fd5b600080fd5b60008083601f8401126100d1576100d06100ac565b5b8235905067ffffffffffffffff8111156100ee576100ed6100b1565b5b60208301915083600182028301111561010a576101096100b6565b5b9250929050565b60008060208385031215610128576101276100a2565b5b600083013567ffffffffffffffff811115610146576101456100a7565b5b610152858286016100bb565b92509250509250929050565b600082825260208201905092915050565b82818337600083830152505050565b6000601f19601f8301169050919050565b600061019b838561015e565b93506101a883858461016f565b6101b18361017e565b840190509392505050565b6000819050919050565b6101cf816101bc565b82525050565b600060408201905081810360008301526101f081858761018f565b90506101ff60208301846101c6565b94935050505056fea26469706673582212205c62c182f9785152156e0e3bb919681fe6281da14393aaa513b057970a5ceb2064736f6c63430008140033",
  "linkReferences": {},
  "deployedLinkReferences": {}
}