{"contracts/StealthVault.sol":{"StealthVault":{"abi":[{"anonymous":false,"inputs":[{"indexed":true,"internalType":"address","name":"user","type":"address"},{"indexed":false,"internalType":"bytes","name":"encryptedData","type":"bytes"},{"indexed":false,"internalType":"uint256","name":"timestamp","type":"uint256"}],"name":"EncryptedIntentStored","type":"event"},{"inputs":[{"internalType":"bytes","name":"encryptedData","type":"bytes"}],"name":"storeEncryptedIntent","outputs":[],"stateMutability":"nonpayable","type":"function"}],"evm":{"bytecode":{"linkReferences":{},"object":"608060405234801561001057600080fd5b5061023d806100206000396000f3fe608060405234801561001057600080fd5b506004361061002b5760003560e01c8063e0d6db2014610030575b600080fd5b61004a60048036038101906100459190610111565b61004c565b005b3373ffffffffffffffffffffffffffffffffffffffff167f809a44155e022f5f5ad0cc9c7d982fe0d87a49dbcf0bac74754ca97b5ada93dd838342604051610096939291906101d5565b60405180910390a25050565b600080fd5b600080fd5b600080fd5b600080fd5b600080fd5b60008083601f8401126100d1576100d06100ac565b5b8235905067ffffffffffffffff8111156100ee576100ed6100b1565b5b60208301915083600182028301111561010a576101096100b6565b5b9250929050565b60008060208385031215610128576101276100a2565b5b600083013567ffffffffffffffff811115610146576101456100a7565b5b610152858286016100bb565b92509250509250929050565b600082825260208201905092915050565b82818337600083830152505050565b6000601f19601f8301169050919050565b600061019b838561015e565b93506101a883858461016f565b6101b18361017e565b840190509392505050565b6000819050919050565b6101cf816101bc565b82525050565b600060408201905081810360008301526101f081858761018f565b90506101ff60208301846101c6565b94935050505056fea26469706673582212205c62c182f9785152156e0e3bb919681fe6281da14393aaa513b057970a5ceb2064736f6c63430008140033","opcodes":"PUSH1 0x80 PUSH1 0x40 MSTORE CALLVALUE DUP1 ISZERO PUSH2 0x10 JUMPI PUSH1 0x0 DUP1 REVERT JUMPDEST POP PUSH2 0x23D DUP1 PUSH2 0x20 PUSH1 0x0 CODECOPY PUSH1 0x0 RETURN INVALID PUSH1 0x80 PUSH1 0x40 MSTORE CALLVALUE DUP1 ISZERO PUSH2 0x10 JUMPI PUSH1 0x0 DUP1 REVERT JUMPDEST POP PUSH1 0x4 CALLDATASIZE LT PUSH2 0x2B JUMPI PUSH1 0x0 CALLDATALOAD PUSH1 0xE0 SHR DUP1 PUSH4 0xE0D6DB20 EQ PUSH2 0x30 JUMPI JUMPDEST PUSH1 0x0 DUP1 REVERT JUMPDEST PUSH2 0x4A PUSH1 0x4 DUP1 CALLDATASIZE SUB DUP2 ADD SWAP1 PUSH2 0x45 SWAP2 SWAP1 PUSH2 0x111 JUMP JUMPDEST PUSH2 0x4C JUMP JUMPDEST STOP JUMPDEST CALLER PUSH20 0xFFFFFFFFFFFFFFFFFFFFFFFFFFFFFFFFFFFFFFFF AND PUSH32 0x809A44155E022F5F5AD0CC9C7D982FE0D87A49DBCF0BAC74754CA97B5ADA93DD DUP4 DUP4 TIMESTAMP PUSH1 0x40 MLOAD PUSH2 0x96 SWAP4 SWAP3 SWAP2 SWAP1 PUSH2 0x1D5 JUMP JUMPDEST PUSH1 0x40 MLOAD DUP1 SWAP2 SUB SWAP1 LOG2 POP POP JUMP JUMPDEST PUSH1 0x0 DUP1 REVERT JUMPDEST PUSH1 0x0 DUP1 REVERT JUMPDEST PUSH1 0x0 DUP1 REVERT JUMPDEST PUSH1 0x0 DUP1 REVERT JUMPDEST PUSH1 0x0 DUP1 REVERT JUMPDEST PUSH1 0x0 DUP1 DUP4 PUSH1 0x1F DUP5 ADD SLT PUSH2 0xD1 JUMPI PUSH2 0xD0 PUSH2 0xAC JUMP JUMPDEST JUMPDEST DUP3 CALLDATALOAD SWAP1 POP PUSH8 0xFFFFFFFFFFFFFFFF DUP2 GT ISZERO PUSH2 0xEE JUMPI PUSH2 0xED PUSH2 0xB1 JUMP JUMPDEST JUMPDEST PUSH1 0x20 DUP4 ADD SWAP2 POP DUP4 PUSH1 0x1 DUP3 MUL DUP4 ADD GT ISZERO PUSH2 0x10A JUMPI PUSH2 0x109 PUSH2 0xB6 JUMP JUMPDEST JUMPDEST SWAP3 POP SWAP3 SWAP1 POP JUMP JUMPDEST PUSH1 0x0 DUP1 PUSH1 0x20 DUP4 DUP6 SUB SLT ISZERO PUSH2 0x128 JUMPI PUSH2 0x127 PUSH2 0xA2 JUMP JUMPDEST JUMPDEST PUSH1 0x0 DUP4 ADD CALLDATALOAD PUSH8 0xFFFFFFFFFFFFFFFF DUP2 GT ISZERO PUSH2 0x146 JUMPI PUSH2 0x145 PUSH2 0xA7 JUMP JUMPDEST JUMPDEST PUSH2 0x152 DUP6 DUP3 DUP7 ADD PUSH2 0xBB JUMP JUMPDEST SWAP3 POP SWAP3 POP POP SWAP3 POP SWAP3 SWAP1 POP JUMP JUMPDEST PUSH1 0x0 DUP3 DUP3 MSTORE PUSH1 0x20 DUP3 ADD SWAP1 POP SWAP3 SWAP2 POP POP JUMP JUMPDEST DUP3 DUP2 DUP4 CALLDATACOPY PUSH1 0x0 DUP4 DUP4 ADD MSTORE POP POP POP JUMP JUMPDEST PUSH1 0x0 PUSH1 0x1F NOT PUSH1 0x1F DUP4 ADD AND SWAP1 POP SWAP2 SWAP1 POP JUMP JUMPDEST PUSH1 0x0 PUSH2 0x19B DUP4 DUP6 PUSH2 0x15E JUMP JUMPDEST SWAP4 POP PUSH2 0x1A8 DUP4 DUP6 DUP5 PUSH2 0x16F JUMP JUMPDEST PUSH2 0x1B1 DUP4 PUSH2 0x17E JUMP JUMPDEST DUP5 ADD SWAP1 POP SWAP4 SWAP3 POP POP POP JUMP JUMPDEST PUSH1 0x0 DUP2 SWAP1 POP SWAP2 SWAP1 POP JUMP JUMPDEST PUSH2 0x1CF DUP2 PUSH2 0x1BC JUMP JUMPDEST DUP3 MSTORE POP POP JUMP JUMPDEST PUSH1 0x0 PUSH1 0x40 DUP3 ADD SWAP1 POP DUP2 DUP2 SUB PUSH1 0x0 DUP4 ADD MSTORE PUSH2 0x1F0 DUP2 DUP6 DUP8 PUSH2 0x18F JUMP JUMPDEST SWAP1 POP PUSH2 0x1FF PUSH1 0x20 DUP4 ADD DUP5 PUSH2 0x1C6 JUMP JUMPDEST SWAP5 SWAP4 POP POP POP POP JUMP INVALID LOG2 PUSH5 0x6970667358 0x22 SLT KECCAK256 0x5C PUSH3 0xC182F9 PUSH25 0x5152156E0E3BB919681FE6281DA14393AAA513B057970A5CEB KECCAK256 PUSH5 0x736F6C6343 STOP ADDMOD EQ STOP CALLER "},"methodIdentifiers":{"storeEncryptedIntent(bytes)":"e0d6db20"}}}}}